:100000008DC10000BCC10000BAC10000B8C1000031
:10001000B6C10000B4C10000B2C10000B0C1000010
:10002000AEC10000ACC10000AAC10000A8C1000020
:10003000A6C10000A4C10000A2C10000A0C1000030
:100040009EC100000C9422099AC1000098C10000D2
:1000500096C1000094C1000092C1000080C700005A
:100060008EC100000C940F1A0C94E61988C1000090
:1000700086C1000084C1000082C1000080C1000070
:100080000C94F5087CC100007AC1000078C1000022
:1000900076C1000074C1000072C1000070C1000090
:1000A0006EC100006CC100000C94C80868C100005B
:1000B00066C1000064C1000062C100000C949B088E
:1000C0005EC100005CC100005AC1000058C10000C0
:1000D00056C1000054C1000052C1000050C10000D0
:1000E0004EC10000741A771A661A6A1A6E1AAE1A8E
:1000F0007B1A7F1A851A891A8D1A931A971A9B1AD6
:10010000AE1AA11AA51AA91A651C8B1C071D521D2F
:100110002B1DE21D371D2A1E2A1E2A1E2A1E2A1EDC
:100120002A1E271C2A1E2A1E2A1E2A1E2A1E2A1E94
:100130002A1E7D1DB31D3B1E631EA91EC61EDF1E8B
:100140002D1F351F671FF41F002024205820C81FB3
:1001500028218121452158210000000000000000D5
:100160000000FF27100032FF27100032FF27100089
:1001700032FF2710003200000000000000000000E5
:10018000000000000000000000000A0B02090C0D36
:100190000E0807030401000000000000000000003A
:1001A000000000000000000000000000000000004F
:1001B000000000001211100000000000000000000C
:1001C00000000000000000000000000000000D0A18
:1001D00050533320426C7565746F6F7468204C699E
:1001E00062726172792053746172746564000D0AE1
:1001F0004F534320646964206E6F7420737461727E
:1002000074000001020408090A0C0D0E0F10000012
:1002100000200000004000000080000000010000FD
:1002200000080000000200000004000000000100BF
:1002300000000200000004000000080000001000A0
:1002400000002000000040000000800000000001CD
:100250000000000800000010000000220025002817
:10026000002B002E003100340002010000050108BF
:10027000010B0100002100240027002A002D00307E
:1002800000330001010000040107010A0105050512
:1002900005070508080808020202020A0A080804FD
:1002A000040404010101010101010103030303032B
:1002B000030303040707070C0C0C0C0C0C0C0C02BA
:1002C00002020206060606060606060B0B0B0B0BC1
:1002D0000B0B0B01021020200808102040102040BA
:1002E00080020102010804020101020408102040FA
:1002F0008080402010080402018004020180402018
:100300001008040201080402010102040810204040
:1003100080010204081020408000622C11241FBEBE
:10032000CFEFD1E2DEBFCDBF00E00CBF13E0A0E015
:10033000B2E0E4E9F0E600E00BBF02C007900D92E6
:10034000A434B107D9F727E0A4E4B3E001C01D92BB
:10035000A935B207E1F711E0CEE8D1E000E006C030
:1003600021970109802FFE010E94E62ECD38D1078A
:1003700080E00807A9F70E94822A0C94483040CEFA
:10038000CF93DF93EC018A819B81DC01ED91FC919D
:100390000480F581E02D6A8519958A85813439F4C8
:1003A000EA81FB81EA58FF4F8081846080831A864E
:1003B0001B861C861D861E861F86188A80E0DF919C
:1003C000CF91089581E0693009F080E00895FC0143
:1003D00082850895DF92EF92FF920F931F93CF9340
:1003E000DF93EC01E62EF12C85E0689FB00111242B
:1003F000FE01E60FF71F8085182F177086FF20C0BB
:1004000001E085E0D82E8FEF800F8F3008F001E0FB
:10041000FE01D09EE00DF11D112480858695869504
:1004200086958770811304C0602FCE01D3DFEBCF98
:100430000F5F003169F78D81811302C011501D8358
:1004400085E08E9DF0018F9DF00D1124EC0FFD1FB6
:10045000108681E0818712862296D783C683DF913A
:10046000CF911F910F91FF90EF90DF900895FC01C5
:100470006134C1F43F969C01265A3F4F61E0AC01C4
:100480004E5F5F4FDF0112971C9211966C931082A2
:1004900013974D935C933596E217F30799F7FC0198
:1004A000158208953D9621E03081361302C0622FF7
:1004B00091CF2F5F35962031B9F70895CF93DF9311
:1004C000FC01862F807809F051C0283008F04FC019
:1004D000442321F09581973009F449C0EF012D960E
:1004E000A0E0B0E011969881911103C0662331F02D
:1004F00021C02596AF30B105A9F739C085E08A9FA4
:10050000E0018B9FD00D1124CE0FDF1F442331F06B
:1005100081E4888785818F5F858302C081E0888739
:1005200025E02A9FC0012B9F900D1124E80FF91F91
:1005300080851DC06770660F660F660F442341F00B
:10054000606485818F5F85838770687F682B03C0B7
:100550002770687B622B25E02A9FC0012B9F900D9E
:100560001124E80FF91F6087862F01C080E0DF911A
:10057000CF910895611102C006960895FC013D9641
:1005800021E03081361307C035E0239F800D911D97
:100590001124069608952F5F3596203191F780E05B
:1005A00090E00895CF92DF92EF92FF920F931F9306
:1005B000CF93DF936C018B017A01EC01CB5BDC4FB5
:1005C000888187FF04C0FB011182108224C08CE067
:1005D0008C9D90018D9D300D11248881A901480FBB
:1005E000511D87FD5A958091490390E0481759079E
:1005F00094F48881A901480F511D87FD5A95CA01BD
:10060000FA01EE0FFF1F8E0F9F1FFC01E65AFC4FF1
:10061000808186FD19C088818F5F88838CE08C9DE6
:1006200090018D9D300D11248881A901480F511D25
:1006300087FD5A958091490390E048175907BCF40B
:1006400088818C3044F113C08881280F311D87FDCB
:100650003A95F901EE0FFF1F2E0F3F1FF901E65AE1
:10066000FC4F808160E08F730E94451AD4CFF8015F
:1006700080819181049680349C4918F480E49CE93F
:1006800004C0F801808191810496F70191838083F1
:100690008FEF888345C0F801408151818881B9017D
:1006A000680F711D87FD7A95CB01FB01EE0FFF1FCF
:1006B0008E0F9F1FFC01E65AFC4F81819281840FAF
:1006C000951FF701918380838881A901480F511DEF
:1006D00087FD5A95CA01FA01EE0FFF1F8E0F9F1F6B
:1006E000FC01E65AFC4F808186FF1AC08881280FE2
:1006F000311D87FD3A95F901EE0FFF1F2E0F3F1FA9
:10070000F901E65AFC4F808161E08F73DF91CF9150
:100710001F910F91FF90EF90DF90CF900C94451AAE
:10072000DF91CF911F910F91FF90EF90DF90CF90CD
:1007300008952F923F924F925F926F927F928F9285
:100740009F92AF92BF92CF92DF92EF92FF920F9360
:100750001F93CF93DF93CDB7DEB766970FB6F894AC
:10076000DEBF0FBECDBF7C01162F6A01FA0180816A
:100770009181A281B3818130F3E09F07F1E0AF075F
:10078000B105E1F060F48115E1E09E07AE07B10527
:1007900069F181309140A140B10581F065C183309C
:1007A00021E0920720E1A207B10509F46BC0833074
:1007B0009340A041B10509F465C056C1809144033E
:1007C000811152C1412F61E1C7010E946619412F79
:1007D00060E1C7010E946619412F64E0C7010E94D1
:1007E000BC1981E08093440381EB56C1462F61E13F
:1007F000C7010E946619412F60E1C7010E94661976
:1008000010924403D7011A968C911A97877017702B
:10081000880F880F880F182B1296CD90DC901397B5
:10082000112309F421C15601B6E5AB0EB11CE12C30
:10083000F12CF501819191915F010097D9F0DC01D4
:10084000ED91FC910084F185E02D1995811312C082
:10085000BBE2EB0EF11CEE0CFF1CF601EE0DFF1DD2
:1008600080819181DC01ED91FC910480F581E02D86
:100870001995FAC0BFEFEB1AFB0AE0E1EE16F1049E
:10088000C1F6F2C0412F64E1C7010E946619412FF1
:1008900060E1C7010E94661964E170E080E090E0C9
:1008A0000E94C21AD7011A968C911A97F6015180AC
:1008B0008770482E1296ED90FC9013971B8A88E063
:1008C0008C8B8CE38D8BFAEFEF16FFEFFF0609F4AC
:1008D000C9C051FA552450F8D7011696CD90DC9036
:1008E0001797CE01439617969C938E9316971A9658
:1008F0005C929E012F5F3F4F42E150E060E0C701F4
:100900000E944019F701D782C6828111ABC0898449
:100910009A846B847C84FD81FE8B2E80670126E5A2
:10092000C20ED11C5601312CD5018D919C9100979E
:1009300089F1DC01ED91FC910084F185E02D1995A0
:10094000811128C0F50180819181DC01ED91FC913C
:100950000088F189E02D622D19958823D9F0F501E1
:1009600080819181DC01ED91FC910484F585E02D7D
:10097000A301B4011995811179C0F501808191819C
:10098000DC01ED91FC910684F785E02D6E891995C7
:1009900081116CC03394B2E0AB0EB11CE0E13E12A9
:1009A000C3CFB12CD6018D919C91009791F1DC01C0
:1009B000ED91FC910084F185E02D1995811129C0FC
:1009C000F60180819181DC01ED91FC910088F18933
:1009D000E02D622D1995882309F453C0F60180811A
:1009E0009181DC01ED91FC910484F585E02DA3015A
:1009F000B401199581110DC0F60180819181DC014E
:100A0000ED91FC910684F785E02D6E891995882378
:100A1000C1F1B394B2E0CB0ED11CE0E1BE12C2CF63
:100A2000D70116968D919C911797892BD9F01A961C
:100A30005C92212F40E0642DC70140DD182F8823F0
:100A400089F0682FC70196DD009761F0FC015482A0
:100A5000412F60E0C7010E94FA1A882319F0612F24
:100A6000C70105DD1092440380E016C0052D212F3B
:100A7000442D632DC7010E94AA23813D09F48ACF2A
:100A8000F1CF052D212F442D6B2DC7010E94AA23E4
:100A9000877F813D39F7BDCF66960FB6F894DEBFEC
:100AA0000FBECDBFDF91CF911F910F91FF90EF90BF
:100AB000DF90CF90BF90AF909F908F907F906F907E
:100AC0005F904F903F902F900895CF92DF92FF92CA
:100AD0000F931F93CF93DF9300D01F92CDB7DEB754
:100AE0008C01F62E19821A821B821C82462F61E12C
:100AF0000E9466194F2D60E1C8010E9466194F2DB2
:100B000064E0C8010E94BC1983E0C82ED12CAE015C
:100B10004F5F5F4F6F2DC8010E9490198823E1F04D
:100B20004F2D64E1C8010E9466194F2D60E1C80194
:100B30000E94661964E170E080E090E00E94C21AB1
:100B40000F900F900F900F90DF91CF911F910F9109
:100B5000FF90DF90CF90089589819A81AB81BC810D
:100B60009D7F83309140A041B105D1F264E670E0F1
:100B700080E090E00E94C21A81E0C81AD10839F6DC
:100B8000CFCFCF92DF92EF92FF920F931F93CF932D
:100B9000DF93CDB7DEB72E970FB6F894DEBF0FBE4A
:100BA000CDBFFC012089211102C010E07EC06C0184
:100BB0000E94291BF6010485158526853785DC01F1
:100BC000CB01801B910BA20BB30BB7FDEECF81E0E5
:100BD00090E09E878D87E12C8E010F5F1F4F9E0155
:100BE000235F3F4F41E06285828193810E943625D9
:100BF00081114DC001E082E0F82E89818F21B9F08A
:100C000019861A861B861C86AE01475F5F4F602FD0
:100C1000C6010E94901981110AC0AE01475F5F4F63
:100C2000602FC60186DD813B81F1811130C0FF0C50
:100C30000F5F083011F701E0F6018385801728F176
:100C400019861A861B861C86AE01475F5F4F602F90
:100C5000C6010E949019811116C089859A858770F6
:100C600091708130914079F48B859C8581609C875F
:100C70008B87AE01475F5F4F602FC6015ADD813B16
:100C800021F0811104C00F5FD7CF10E001C0182FF1
:100C90000E94291BDC01CB018C599F4FAF4FBF4FE6
:100CA000F60184879587A687B787812F2E960FB682
:100CB000F894DEBF0FBECDBFDF91CF911F910F9192
:100CC000FF90EF90DF90CF9008953F924F925F9208
:100CD0006F927F928F929F92AF92BF92CF92DF924C
:100CE000EF92FF920F931F93CF93DF93CDB7DEB7B1
:100CF000E8970FB6F894DEBF0FBECDBFDC011296A9
:100D0000AD90BC9013971A963C913111FCC0922E75
:100D1000342E862E3C01D501ED91FC910190F0819D
:100D2000E02D60E0C50119957C01009709F4EEC043
:100D3000FC01C080D180C114D10409F4EAC0830150
:100D40000C5F1F4F118300839482CE0101962C010A
:100D50009C0148E050E060E0D30112968D919C9197
:100D600013970E944019F70114828111DBC099800A
:100D70008D81893009F0D0C0D501ED91FC910280C0
:100D8000F381E02D232D41E0682DC5011995F30174
:100D90008287882309F4C3C098859583482F60E033
:100DA000828193810E94FA1A882E882391F0D701BC
:100DB000CD92DC92D501ED91FC910480F581E02D7E
:100DC000D3011A966C91C5011995F3011286F82C7E
:100DD000ADC0492D413208F040E2D701CD92DC92FE
:100DE00041110BC0980142E0F30162858281938139
:100DF0000E947526811199C00FC050E09201D30165
:100E00001A966C911A9712968D919C9113970E9445
:100E1000401981118AC0E6CF1F921F925F924F92B4
:100E20001F9288E08F9358E0852E912CA12CB12C35
:100E300069E2C62EE12C06E020EA40E0F30162857B
:100E4000828193810E946D25F82E0F900F900F9054
:100E50000F900F900F90811169C08B81D3011B9669
:100E60008C931B97820120E048E050E01A966C9129
:100E70001A9712968D919C9113970E94142A8111B2
:100E800054C04B815C8120E0F301628582819381B3
:100E90000E94142A811149C0498150E08E010F5DE2
:100EA0001F4F20E0D3011A966C911A9712968D91DC
:100EB0009C9113970E94142A811137C02E8140E023
:100EC000F3016285828193810E94512681112DC098
:100ED00011E0D3011B968C911B97811738F0412F9D
:100EE00068E0C3010E94BC191F5FF3CF1296ED9119
:100EF000FC911397EA58FF4F80818460808381E0E2
:100F000050968C9313C049EDF42E10C036EDF32E9D
:100F10000DC027EDF22E0AC091EDF92E07C084ED29
:100F2000F82E04C0F701D182C082F82E8F2DE896EA
:100F30000FB6F894DEBF0FBECDBFDF91CF911F91EA
:100F40000F91FF90EF90DF90CF90BF90AF909F9068
:100F50008F907F906F905F904F903F9008951F9279
:100F60000F920FB60F9211242F933F938F939F935D
:100F7000AF93BF9380914F0390915003A091510381
:100F8000B091520330914A0323E0230F2D3720F410
:100F90000196A11DB11D05C026E8230F0296A11DD3
:100FA000B11D20934A0380934F0390935003A09365
:100FB0005103B09352038091530390915403A09135
:100FC0005503B09156030196A11DB11D80935303A3
:100FD00090935403A0935503B0935603BF91AF91E0
:100FE0009F918F913F912F910F900FBE0F901F9067
:100FF0001895FC019081903380F5818128E830E0DC
:10100000281B310987FD3395220F331F220F331F11
:10101000621773077CF0828128E532E0281B3109D2
:1010200087FD3395220F331F220F331F621773077B
:101030000CF49B0122503109220F331F4FB7F89453
:10104000892F90E0FC01EE0FFF1F8E0F9F1FFC0108
:10105000E65AFC4F328321834FBF0895CF92DF922F
:10106000EF92FF92CF93DF93EC01603282E078073A
:101070000CF03DC077FD06C0653B71052CF064EBBC
:1010800070E002C060E070E0898128E830E069012A
:10109000C81AD10887FDD394CC0CDD1CCC0CDD1C08
:1010A0000D2C000CEE08FF088A8128E532E0281B91
:1010B000310987FD3395220F331F220F331FC901DA
:1010C000330FAA0BBB0B9C01AD012C193D094E0936
:1010D0005F09DB010E94B22E24EB30E040E050E0DB
:1010E0000E948C2EC20ED31EE41EF51EB601CE0148
:1010F000DF91CF91FF90EF90DF90CF907ACFFC01FE
:10110000909149039033A0F481E0890F80934903C3
:101110009083892F90E0FC01EE0FFF1F8E0F9F1F21
:10112000FC01E65AFC4F88EB9BE092838183089593
:101130008FEF808308951F920F920FB60F921124A4
:101140000BB60F922F933F934F935F936F937F93C1
:101150008F939F93AF93BF93EF93FF9348E251E038
:1011600064E271E080E090E01DDAFF91EF91BF91C1
:10117000AF919F918F917F916F915F914F913F912F
:101180002F910F900BBE0F900FBE0F901F901895D0
:101190001F920F920FB60F9211240BB60F922F933E
:1011A0003F934F935F936F937F938F939F93AF93EF
:1011B000BF93EF93FF9348EA50E064EA70E083E066
:1011C00090E0F0D9FF91EF91BF91AF919F918F91F6
:1011D0007F916F915F914F913F912F910F900BBE37
:1011E0000F900FBE0F901F9018951F920F920FB681
:1011F0000F9211240BB60F922F933F934F935F934F
:101200006F937F938F939F93AF93BF93EF93FF93CE
:1012100048E950E064E970E082E090E0C3D9FF91D2
:10122000EF91BF91AF919F918F917F916F915F915E
:101230004F913F912F910F900BBE0F900FBE0F90CB
:101240001F9018951F920F920FB60F9211240BB694
:101250000F922F933F934F935F936F937F938F934F
:101260009F93AF93BF93EF93FF9348E850E064E8F8
:1012700070E081E090E096D9FF91EF91BF91AF913E
:101280009F918F917F916F915F914F913F912F919E
:101290000F900BBE0F900FBE0F901F9018950F93DD
:1012A0001F93CF93DF93C82FD62F8A0180E591E05B
:1012B0000E9454170E9448178C2F82600E944D177D
:1012C000CD2FD0E0209721F0BE01C8010E942A173F
:1012D000C00FD11F0E944A170E944C17CE01DF9108
:1012E000CF911F910F9108951F93CF93DF9300D05B
:1012F000CDB7DEB7182F80E591E06B830E945417BD
:101300000E944817126019836B816A8362E070E063
:10131000CE0101960E942A170E944A170E944C177C
:101320000F900F900F90DF91CF911F9108951F9311
:10133000CF93DF931F92CDB7DEB7182F80E591E0F2
:101340000E9454170E944817812F0E944D1780E079
:101350000E944D1789830E944A170E944C17898169
:101360000F90DF91CF911F910895CF93DF93DC0110
:101370001D961C921D971E961C921E971F961C92DE
:101380001F9751961C92519718961D921D921D926F
:101390001C921B9752961C925297E8E5F1E0EC01E3
:1013A000C359DF4FA356BF4F849189933196CA1713
:1013B000DB07D1F7DF91CF910895CF93DF93FC0145
:1013C000EA0180819181892B19F580E027C028816D
:1013D0003981232BD1F3DB012D913C91D9019C91D3
:1013E000A381B0E0A81BB10920813181A20FB31FF6
:1013F0009C9382818150828388819981019799830E
:101400008883DB018D919C91119701968D939C931C
:1014100082818111DCCF8381828381E0DF91CF9152
:101420000895089580E090E008952F923F924F92A2
:101430005F926F927F928F929F92AF92BF92CF9264
:10144000DF92EF92FF920F931F93CF93DF9300D021
:101450001F92CDB7DEB76C017C836B835A834983BF
:101460004C0180E1880E911C5601A7E0AA0EB11C28
:10147000332433942601BBE04B0E511C3601E2E1CC
:101480006E0E711C83E0282E12E08B819C81892BCB
:1014900009F4D3C0D60190968C91823059F128F48A
:1014A000882341F0813079F0F0CF833039F18430F6
:1014B000C9F1EBCFF60114838581968190878783EC
:1014C0001287118730A2AE014D5F5F4FBE016F5F83
:1014D0007F4FC50172DF882309F4AFC0D60115968E
:1014E000ED91FC911697808191968C9391978181D3
:1014F00092968C93F6017682658220A2D60192960E
:101500008C919297843011F493961C92F60181A1EC
:101510008250848325813681308727838287818723
:1015200084E080A3D60192968C918430A9F0853016
:1015300009F440C0823009F068C0AE014D5F5F4FD2
:10154000BE016F5F7F4FC50138DF882309F475C086
:10155000F601858984A369C0AE014D5F5F4FBE016E
:101560006F5F7F4FC50129DF882309F466C0D6016C
:1015700055968C9155978F3F09F057C056968C9190
:101580005697813009F051C098969C91989757963C
:101590008C91992321F0882309F447C003C081303E
:1015A00009F043C0F60133A2928996A3938997A3C9
:1015B00085A33BC0AE014D5F5F4FBE016F5F7F4FA4
:1015C000C501FBDE8823C9F1D60193968C919397D0
:1015D000882359F112968D919C911397009729F1C8
:1015E000DC01ED91FC910190F081E02D7401D601B8
:1015F00095960C91959797962C91979796964C91D6
:10160000969794966C91199510C0F60121A130E03F
:1016100022503109AE014D5F5F4FBE016F5F7F4FBA
:10162000C2010E94F816882341F0D60116969C92BA
:101630008E92159790961C9228CF0F900F900F9036
:101640000F90DF91CF911F910F91FF90EF90DF905E
:10165000CF90BF90AF909F908F907F906F905F9052
:101660004F903F902F9008952F923F924F925F920C
:101670006F927F928F929F92AF92BF92CF92DF92A2
:10168000EF92FF920F931F93CF93DF9300D01F929F
:10169000CDB7DEB76C017C836B835A8349834C01E1
:1016A00080E1880E911C5601A7E0AA0EB11C3324DC
:1016B00033942601BBE04B0E511C3601E2E16E0E65
:1016C000711C83E0282E12E08B819C81892B09F408
:1016D000D3C0D60190968C91823059F128F488239A
:1016E00041F0813079F0F0CF833039F18430C9F1A5
:1016F000EBCFF601148385819681908787831287CB
:10170000118730A2AE014D5F5F4FBE016F5F7F4F0B
:10171000C50153DE882309F4AFC0D6011596ED91BB
:10172000FC911697808191968C93919781819296E6
:101730008C93F6017682658220A2D60192968C91D6
:101740009297843011F493961C92F60181A18250F5
:10175000848325813681308727838287818784E04F
:1017600080A3D60192968C918430A9F0853009F43B
:1017700040C0823009F068C0AE014D5F5F4FBE01CE
:101780006F5F7F4FC50119DE882309F475C0F6012C
:10179000858984A369C0AE014D5F5F4FBE016F5F55
:1017A0007F4FC5010ADE882309F466C0D60155962D
:1017B0008C915597803E09F057C056968C9156975C
:1017C000813009F051C098969C91989757968C91CA
:1017D000992321F0882309F447C003C0813009F020
:1017E00043C0F60133A2928996A3938997A385A358
:1017F0003BC0AE014D5F5F4FBE016F5F7F4FC501C4
:10180000DCDD8823C9F1D60193968C9193978823C8
:1018100059F112968D919C911397009729F1DC0153
:10182000ED91FC910190F081E02D7401D601959627
:101830000C91959797962C91979796964C91969791
:1018400094966C91199510C0F60121A130E02250B8
:101850003109AE014D5F5F4FBE016F5F7F4FC20127
:101860000E94F816882341F0D60116969C928E921B
:10187000159790961C9228CF0F900F900F900F9075
:10188000DF91CF911F910F91FF90EF90DF90CF905C
:10189000BF90AF909F908F907F906F905F904F9090
:1018A0003F902F9008956115710579F0FB0101902B
:1018B0000020E9F73197AF01461B570BDC01ED9192
:1018C000FC910280F381E02D199480E090E008956E
:1018D0006F927F928F929F92AF92BF92CF92DF9240
:1018E000EF92FF920F931F93CF93DF9300D01F923D
:1018F000CDB7DEB7ADB6BEB6622E712C430138E06F
:10190000830E911CADB7BEB7A819B9090FB6F894EC
:10191000BEBF0FBEADBFEDB7FEB731966F011196DA
:101920006C937F707062718334E0320F3283B30145
:101930006C5F7F4F7383248315820683E7822DB704
:101940003EB7275F3F4FDA01BD01641B750B66157B
:10195000770528F46D91F90161939F01F5CFFC01A2
:10196000E35BFF4F40813A9760813297E080F180DE
:101970001C821B821A8219828E010F5F1F4F9E01EB
:101980002D5F3F4FC7010E94E127811109C04981A6
:101990005A816B817C8186019401C7010E94462493
:1019A000882331F064E670E080E090E00E94C21A83
:1019B0000FB6F894BEBE0FBEADBE0F900F900F9045
:1019C0000F90DF91CF911F910F91FF90EF90DF90DB
:1019D000CF90BF90AF909F908F907F906F90089521
:1019E000EF920F93CF93DF93EC012C852F5F2C8721
:1019F0006E817F818C819D81AC014E505F4F36E0BE
:101A0000FA01308331962083319624E02083319689
:101A10001082FE01ED52FF4F2081FC01EA50FF4F82
:101A20002083FE01EC52FF4F2081FC01E950FF4F63
:101A30002083FE01EB52FF4F2081FC01E850FF4F55
:101A40002083FE01EA52FF4F2081FC01E750FF4F47
:101A50002083E12C01E028E03BDFE881F98104806C
:101A6000F581E02DCE01199589E08A8BDF91CF9128
:101A70000F91EF900895EF920F931F93CF93DF9301
:101A8000D801FC01EE50FF4F53E05083EC01CD50E4
:101A9000DF4F4883219648E0488321961882E90168
:101AA0004881EC01CA50DF4F4883E9012981EC01EC
:101AB000C950DF4F28832C912196288311962C91B1
:101AC000DC01A750BF4F2C931196EC9211961C92FB
:101AD00011961C9211961C92E12C01E02CE0AF01B2
:101AE000F7DEDF91CF911F910F91EF900895AF92A4
:101AF000BF92CF92DF92EF92FF920F931F93CF93FB
:101B0000DF93EC01FB018C819D81DC0115962C910A
:101B10001597211136C02D85211133C02E85211135
:101B200030C02F8521112DC0298921112AC0D996B5
:101B30002C91D997211125C0DA962C91DA97211191
:101B400020C0DB962C91DB9721111BC02085223011
:101B5000C1F4258530E0322F22274485242B213102
:101B6000310579F421E015962C931597298B52961F
:101B70002D913C9153973F832E831A8A5A962C912C
:101B8000288B6E817F81208130E0AB01552724179F
:101B9000350709F048C3418150E0272F33272062E1
:101BA0004217530709F03FC36E01BBE2CB0ED11CB5
:101BB00020E4D60101900D922A95E1F759A94AA98E
:101BC000252F30E0342B2130310509F086C12BA9B7
:101BD000213009F4DEC1223081F588AD90E0982FE4
:101BE00088272FA9822B8131910581F48CA98C87BC
:101BF00089ADFE01E153FF4F80838AAD319680832A
:101C000088859985AA85BB85816012C0439709F0B4
:101C1000C0C18CA98C8789ADFE01ED52FF4F808336
:101C20008AAD3196808388859985AA85BB85806138
:101C300088879987AA87BB87ACC1253061F58CADB1
:101C400090E0982F88272BAD822B892B09F0A1C11A
:101C50008FA9FE01EF52FF4F908189130BC028AD71
:101C600031969081291306C088859985AA85BB8500
:101C70008260DECFFE01EB52FF4F9081891389C154
:101C800098AD31968081981384C188859985AA85FD
:101C9000BB858062CDCF243009F069C02FA9FE0139
:101CA000EF52FF4F308123131FC048AD3196308172
:101CB00043131AC02CA9AC014E505F4F35E0FA0116
:101CC00030833196208331962AE02083319610822A
:101CD000FE01E153FF4F2081FC01EA50FF4F2083BA
:101CE000FE01E053FF4F26C0FE01EB52FF4F308153
:101CF00023134FC138AD3196208132134AC12CA92C
:101D0000AC014E505F4F35E0DA013C93FC01ED50E1
:101D1000FF4F208331962AE0208331961082FE0106
:101D2000ED52FF4F2081FC01EA50FF4F2083FE015E
:101D3000EC52FF4F2081FC01E950FF4F2083319688
:101D4000108231961082319610823196108231962F
:101D500021E02083319622E02083319630EA3083DF
:101D600031962083E12C01E02EE0B2DD12C1263055
:101D700009F089C02FA9DE01AF52BF4F3C91231358
:101D800036C07E01E2EDEE0EF11C48ADF701308168
:101D900043132DC02CA92C87AC014E505F4F37E068
:101DA000FA0130835C01F3EFAF0EB11CF501208323
:101DB0009C012C503F4F14E0F90110832F5F3F4FDF
:101DC000F90110822C91DC01AA50BF4F2C93D7014E
:101DD0002C9132962083FE01E153FF4F2081FC01BC
:101DE000E850FF4F2083FE01E053FF4F3BC0DE0170
:101DF000AB52BF4F3C912313CCC07E01E6EDEE0EFB
:101E0000F11C38ADF70120813213C3C02CA92C87F7
:101E1000AC014E505F4F37E0FA0130835C01F3EFC5
:101E2000AF0EB11CF50120839C012C503F4F14E0F4
:101E3000F90110832F5F3F4FF90110822C91DC01D3
:101E4000AA50BF4F2C93D7012C9132962083FE01CC
:101E5000ED52FF4F2081FC01E850FF4F2083FE012F
:101E6000EC52FF4F2081FC01E750FF4F2083E12C13
:101E700001E028E02DDDE881F9810480F581E02D85
:101E8000CE01199586C0273009F083C08FA9FE01C5
:101E9000E153FF4F908189130DC028AD3196908199
:101EA000291308C08CA98C8788859985AA85BB854C
:101EB0008860BECEFE01ED52FF4F9081891369C04C
:101EC00098AD31968081981364C08CA98C878885E1
:101ED0009985AA85BB858068ABCEFE01EB52FF4F8A
:101EE0008081581356C031968081481352C08D8529
:101EF000811107C08E85811104C08F85882309F464
:101F000048C08BA9813A09F044C00E94291B6B8B01
:101F10007C8B8D8B9E8B8D85811103C08F85882353
:101F200051F08FA990E0982F88272EA9822BA0E04E
:101F3000B0E028AD0CC08E85882371F08EA990E0AA
:101F4000982F88272DA9822BA0E0B0E02FA9A22BE3
:101F50008F8B988FA98FBA8F4F89588D698D7A8D05
:101F60008B8D9C8DAD8DBE8D481759076A077B07F9
:101F700081F080959095A095B09584239523A62314
:101F8000B7238F8F98A3A9A3BAA34B8F5C8F6D8FB4
:101F90007E8F8A89853009F416C130F4882371F068
:101FA000843009F455C03FC1883009F4B8C0893085
:101FB00009F4CBC0863009F036C14FC0888580FF58
:101FC00032C16E01BFECCB0ED11C5E01E1EDAE0E55
:101FD000B11C6E817F81EE24E394860195014C85CE
:101FE0008C819D8148DD61E070E080E090E00E949E
:101FF000C21A6E817F81E12C95014C858C819D8177
:102000003ADD8C858F5F8C8761E070E080E090E046
:102010000E94C21A2C856E817F818C819D81AC01CA
:102020004E505F4F14E0DA011C93FC01ED50FF4F5E
:102030002083319628E0208331961082F60120819A
:10204000FC01EA50FF4F2083FE01E053FF4F4EC0DA
:10205000888581FFE8C086E0B4C0888584FFE3C03E
:102060006E01F3EDCF0ED11C5E0125EDA20EB11C69
:102070006E817F81EE24E394860195014C858C81ED
:102080009D81F9DC61E070E080E090E00E94C21A7E
:102090006E817F81E12C95014C858C819D81EBDCEB
:1020A0008C858F5F8C8761E070E080E090E00E941B
:1020B000C21A2C856E817F818C819D81AC014E502E
:1020C0005F4F34E0DA013C93FC01ED50FF4F208379
:1020D000319618E0108331961082F6012081FC01C0
:1020E000EA50FF4F2083FE01EC52FF4F2081FC019C
:1020F000E950FF4F2083319610823196108231963D
:1021000021E02083319622E0208331962FEF208337
:102110003196208301E02CE0DBDB1A8B84C08885BC
:1021200085FF81C088898D3439F480E4D6011D9201
:102130008A95E9F781E101C082E18A8B0E94291B1F
:102140006BA37CA38DA39EA36EC0888587FF6BC005
:102150002C852F5F2C876E817F818C819D81AC01C6
:102160004E505F4F36E0FA0130833196208331962E
:1021700024E0208331961082FE01E153FF4F20813D
:10218000FC01EA50FF4F2083FE01E053FF4F208106
:10219000FC01E950FF4F2083FE01EF52FF4F2081E9
:1021A000FC01E850FF4F2083FE01EE52FF4F2081DB
:1021B000FC01E750FF4F2083E12C01E028E088DBA1
:1021C00085E08A8B30C0888583FF2DC03E812F81BA
:1021D0008C819D81FC01E159FF4F408151814B7FF2
:1021E00051834083BC016E587F4F46E0DB014C9326
:1021F000349644E04083319643E040833196308307
:1022000031962F702083319623E1208346E050E001
:102210000E94351B8FEF9FEF9F838E831886198650
:102220001A861B861A8ADF91CF911F910F91FF901A
:10223000EF90DF90CF90BF90AF900895CF93DF9352
:10224000FC01BC016E587F4F8DE0DB018C93119631
:1022500084E08C93119687E18C93119684898C93FA
:10226000119685898C93119686898C93119687890E
:102270008C931196808D8C931196818D8C9323ADC8
:10228000CF0185589F4F222391F126E0DC012C934A
:1022900057978C91882399F0A855B109CF014296A0
:1022A0002D91ED01C159DF4F2883A817B907C1F758
:1022B000DF01AE57BF4FCF0184579F4F0DC0DF01E5
:1022C0005496CF014A962D91ED01C959DF4F2883CD
:1022D000A817B907C1F7ECCF1D92A817B907E1F706
:1022E0004AE150E0CF01DF91CF910C94351BC285BC
:1022F000D385DE010D900020E9F711979D012C1B7D
:102300003D0BDC012C9380E0282F30E0DE010D90A6
:102310000020E9F71197AC1BBD0B2A173B0770F49F
:10232000DF01A20FB31FAD0144585F4F2C0F3D1FBB
:10233000D9019C91DA019C938F5FE6CF803180F6C2
:10234000DF01A80FB11DA458BF4F1C928F5FF6CFBD
:10235000FC016C358AE0780729F4483E91E2590780
:1023600049F42BC06D3085E0780721F44A3596E0BA
:10237000590719F1848581110FC0858581110CC021
:102380008685811109C08785811106C080898111E8
:1023900003C08189882379F06C34754061F4483634
:1023A00092E0590751F04F3284E0580731F081E054
:1023B000453D534019F080E0089581E0089581E0A3
:1023C000603E09F080E00895FC01ED59FF4F8081E7
:1023D0000895FC01ED5BFF4F80810895089581E031
:1023E000089580E0089580E00895089580E00895BC
:1023F00080E0089580E0089580E0089580E00895E9
:10240000089508952F923F924F925F926F927F921C
:102410008F929F92AF92BF92CF92DF92EF92FF92F4
:102420000F931F93CF93DF93CDB7DEB7AE970FB661
:10243000F894DEBF0FBECDBF3C01D22EFC01E95B9C
:10244000FF4F808010821C0121E4220E311CD1013B
:102450000D911C91D801ED91FC912C01B3E44B0E30
:10246000511C0190F081E02DD2016C91C8011995A9
:102470007C01892B11F486EDA8C16CE271E080E04B
:1024800090E00E94C21AF201408160E0D1018D917A
:102490009C910E94FA1A382F882319F0F7011482B0
:1024A00089C1D70114961C92D801ED91FC9101903D
:1024B000F081E02DD2016C91C80119950097D9F2F5
:1024C000FC01D482C3018C5B9F4F9BA78AA79C0110
:1024D00041E0D2016C91F101808191810E947526C9
:1024E000382F811167C15301F0E6AF0EB11CD50141
:1024F0008D919C918C34954009F0C3C08301025AA0
:102500001F4FF801808191818836F2E09F0741F0EA
:102510008F3224E0920721F0853D934009F0B1C04D
:1025200064E670E080E090E00E94C21A21E0AAA573
:10253000BBA54C91F2016081D1018D919C910E94CB
:102540005126382F811136C1F3018485811110C0C5
:10255000858581110DC0868581110AC0878581110D
:1025600007C08089811104C08189882309F46DC066
:10257000D8012D913C91C30142962836B2E03B0729
:1025800019F02F32344051F521E029831A82DC0101
:10259000FE013396CE0109962E912193E817F90793
:1025A000D9F71F921F92CE0101969F938F931F928E
:1025B00088E08F9338E0832E912CA12CB12C43E03E
:1025C000C42E55EFE52E09E021E2AAA5BBA54C914A
:1025D000F2016081D1018D919C912FC025E029836A
:1025E00020E1288721E0298722E02A8722E12B8722
:1025F000F3013C96DE01129621912D93E817F9071D
:10260000D9F71F921F92CE0101969F938F931F922D
:102610008BE08F938BE0882E912CA12CB12C93E032
:10262000C92E25E0E22E09E021E2EAA5FBA54081C2
:10263000D2016C91F101808191810E946D250F90F2
:102640000F900F900F900F900F9020E0AAA5BBA5C0
:102650004C91F2016081D1018D919C910E94512693
:1026600040E0F2016081D1018D919C91C3D7D301EB
:10267000ED91FC910480F581E02DC301199581ED68
:10268000A4C0912CF30132967F018E010F5E1F4F83
:102690006301FEE5CF0ED11CC3018F5A9F4F9DA74A
:1026A0008CA7981409F444C0F501808191818C3580
:1026B000FAE09F0739F4D6018D919C91883E9142B2
:1026C00079F409C08D30954059F4D6018D919C91D3
:1026D0008A35964029F4EAE0F2E0FA83E98304C0FF
:1026E00080E192E09A838983FC82EB821E86188ABD
:1026F0001F8619A21AA21BA219A61F830E8319876F
:1027000008878D818B878A871D870C879E012F5FA5
:102710003F4F492DD2016C91F1018081918153D5B8
:10272000382F811147C0ACA5BDA58C91843038F0FD
:10273000F301EF5AFF4F40814430A0F102C093945F
:10274000B0CF2AA53BA5D2016C91F1018081918186
:102750000E947526382F81112DC0F301E05BFF4FD9
:102760002081AAA5BBA54C91F2016081D1018D9178
:102770009C910E945126382F81111CC0F301E3590E
:10278000FF4F84E690E0918380833297118210821C
:1027900031971082F3011482ED59FF4F81E080835D
:1027A00080E013C040E0D2016C91F1018081918101
:1027B00021D731EDD301ED91FC910480F581E02D1D
:1027C000C3013EA719953EA5832FAE960FB6F89488
:1027D000DEBF0FBECDBFDF91CF911F910F91FF9054
:1027E000EF90DF90CF90BF90AF909F908F907F90B1
:1027F0006F905F904F903F902F9008953F924F922F
:102800005F926F927F928F929F92AF92BF92CF9280
:10281000DF92EF92FF920F931F93CF93DF93CDB789
:10282000DEB763970FB6F894DEBF0FBECDBF8C0145
:10283000562E442E322E0E94E221580181E4A80E29
:10284000B11CD501CD90DC904801B3E48B0E911CF6
:10285000F401808181116DC0D601ED91FC91019050
:10286000F081E02D60E0C60119957C01009709F424
:1028700062C0FC01608071806114710409F45DC064
:10288000C8018C5B9F4F9183808334829E012F5FB0
:102890003F4F42E150E060E0D5018D919C91F0D432
:1028A000382FF70171826082811134C0D601ED9119
:1028B000FC910280F381E02D242D40E0652DC601BE
:1028C0001995F40180838823D1F19D81993091F08D
:1028D00032968885808332968A8980837996898525
:1028E0009A859183808332978B859C8591838083A1
:1028F00080EE26C040E0682FD5018D919C917AD65C
:10290000D801ED91FC910480F581E02DC801199565
:1029100081ED16C08D3009F031EED801ED91FC91BA
:102920000480F581E02DC8013B8B19953B89832FED
:1029300007C089ED05C086ED03C087ED01C084EDB9
:1029400063960FB6F894DEBF0FBECDBFDF91CF9177
:102950001F910F91FF90EF90DF90CF90BF90AF90BD
:102960009F908F907F906F905F904F903F900895D1
:10297000CF93DF93EC016CED75E009960E94F907A7
:102980006CED75E0CE010C96DF91CF910C94F907B8
:102990006F927F928F929F92AF92BF92CF92DF926F
:1029A000EF92FF920F931F93CF93DF931F92CDB7B8
:1029B000DEB73C0184E090E00E94BC29882379F1D5
:1029C000E5E3F2E0459155916591749180910005A0
:1029D00090910105A0910205B091030584239523F0
:1029E000A623B723892B8A2B8B2BC9F0D3011796EB
:1029F0008D919C911897009741F481E090E0189692
:102A00009C938E93179761E006C0019741F4F30100
:102A10001086178260E080E090E00E945C2E85E0E6
:102A200090E00E94BC29882399F1D30112962C9141
:102A300012972130A9F483E012968C9382E180935F
:102A40005F0542E364E575E089EE94E00E9492261A
:102A500065E085E00E94572887E0F301868318C06F
:102A60002330B1F481E0D30112968C9382E08093FD
:102A70005F0542E364E575E089EE94E029830E94F6
:102A8000922665E085E00E9457282981F30126837C
:102A90008BE090E00E94BC29882391F0D301159629
:102AA0008C911597811104C081E015968C9304C018
:102AB000813031F4F30115826AE08AE00E945728E0
:102AC000D30117968D919C911897892B09F0B2C06C
:102AD0002091240530E0A4EBB0E00E94B82E812CB8
:102AE000912C54018A94A50194010E948C2E6901B5
:102AF0007A01BAE5CB1AD108E108F108A0912505C1
:102B0000B0E02CE43FEF4FEF5FEF0E94A82EA5014D
:102B100094010E948C2EDA01C901865A9F4FAF4F53
:102B2000BF4FAC019601295F3F4F2F30310510F4A4
:102B3000C12CD12C9C01295F3F4F2F30310510F162
:102B4000C114D10421F5892B8A2B8B2B01F56CED57
:102B500075E0C30109960E94F9076CED75E0C301A9
:102B60000C960F90DF91CF911F910F91FF90EF90F6
:102B7000DF90CF90BF90AF909F908F907F906F909D
:102B80000C94F907C114D10411F340E050E0809196
:102B90004C03282F30E02C153D0514F48F5F04C042
:102BA000C216D3061CF4815080934C0380914B03D2
:102BB000282F30E02417350714F48F5F04C0421724
:102BC00053071CF4815080934B03E0914C03F0E0D9
:102BD000E0904B03F12CD30116960C91169710E060
:102BE00013962D913C911497CF018E0D9F1DB80126
:102BF0000E94D32E6B01CF018E199F09B8010E944C
:102C0000D32E8901061B170BB601620F731F6C3A96
:102C1000BFEF7B0714F46CEA7FEF0C3AEFEF1E076F
:102C200014F40CEA1FEF653571050CF4B9C064E5C6
:102C300070E0B6C081E090E0D30118969C938E932B
:102C4000179715968C91811128C02091240530E0AA
:102C5000A4EBB0E00E94B82EC12CD12C7601CA940E
:102C6000A70196010E948C2E89019A010A5511092B
:102C70002109310980912605282F30E0A4EBB0E02E
:102C80000E94B82EA70196010E948C2EDA01C9017C
:102C90008A559109A109B1092CC0813059F5A0913B
:102CA0002605B0E02CE43FEF4FEF5FEF0E94A82E27
:102CB000C12CD12C7601CA94A70196010E948C2EBA
:102CC00089019A01065A1F4F2F4F3F4FA0912405AB
:102CD000B0E02CE43FEF4FEF5FEF0E94A82EA7017A
:102CE00096010E948C2EDA01C901865A9F4FAF4F80
:102CF000BF4F7C01C80107960F9710F400E010E069
:102D0000C70107960F9708F46CC00115110521F44F
:102D1000E114F10409F41BCF80914E03282F30E019
:102D20002017310714F48F5F04C0021713071CF437
:102D3000815080934E0380914D03282F30E02E1553
:102D40003F0514F48F5F04C0E216F3061CF48150B3
:102D500080934D03F30146812381348180914E039A
:102D6000642F0E94C72E582F80914D030E94C72EBA
:102D70008901081B1109C901850F911D8C3AFFEFCC
:102D80009F0714F48CEA9FEF0C3A2FEF120714F40C
:102D90000CEA1FEF8535910514F084E590E0BC0145
:102DA000665A7F4FC30109960E942E08053511050A
:102DB00014F004E510E0B801665A7F4FC3010C9689
:102DC0000F90DF91CF911F910F91FF90EF90DF90C7
:102DD000CF90BF90AF909F908F907F906F900C940A
:102DE0002E080115110509F4B2CEE12CF12C94CF77
:102DF000CF93DF93FC01DA018281882319F08130BF
:102E0000D9F01FC03483238381E0828315C02D91C4
:102E10003C911197232BA9F0019794838383EB01B5
:102E2000888199810196998388838D919C911197CE
:102E3000019711969C938E9383819481009739F723
:102E4000128281E023813481232B09F080E0DF911D
:102E5000CF910895FC0120812EBDDC0131969C01AB
:102E6000260F371FE217F30741F051910DB407FE0B
:102E7000FDCF4EB55EBD4D93F5CF61507109FC019C
:102E8000E60FF71F0DB407FEFDCF8EB580830895C2
:102E900028980895289A089508958EBD00000DB4CD
:102EA00007FEFDCF8EB508958CBD9DBD08951F937F
:102EB000CF93DF9300D0CDB7DEB7182F80E591E038
:102EC0006B83F2DFE5DF126019836B816A8362E056
:102ED00070E0CE010196BEDFDDDF0F900F900F9006
:102EE000DF91CF911F9108951F93CF93DF931F928E
:102EF000CDB7DEB7182F80E591E0D6DFC9DF812F8F
:102F0000CCDF80E0CADF8983C5DF89810F90DF9144
:102F1000CF911F910895CF92DF92EF92FF920F937E
:102F20001F93CF93DF936C017A018B01C0E0D0E057
:102F3000CE15DF0589F0D8016D918D01D601ED9197
:102F4000FC910190F081E02DC6011995892B11F4B7
:102F50007E0102C02196ECCFC701DF91CF911F9176
:102F60000F91FF90EF90DF90CF900895FC01538D6B
:102F7000448D252F30E0842F90E0821B930B541753
:102F800010F0CF96089501970895FC01918D828DE0
:102F9000981761F0828DDF01A80FB11D5D968C91AD
:102FA000928D9F5F9F73928F90E008958FEF9FEFB8
:102FB0000895FC01918D828D981731F0828DE80F74
:102FC000F11D858D90E008958FEF9FEF0895FC012E
:102FD000918D228D892F90E0805C9F4F821B9109FB
:102FE0008F73992708958AEE93E0F1DF21E0892B12
:102FF00009F420E0822F0895FC01848DDF01A80FE1
:10300000B11DA35ABF4F2C91848D90E001968F7310
:103010009927848FA689B7892C93A089B1898C912F
:1030200080648C93938D848D981306C00288F389F5
:10303000E02D80818F7D80830895EF92FF920F9322
:103040001F93CF93DF93EC0181E0888F9B8D8C8D54
:10305000981305C0E889F989808185FD23C0F62E83
:103060000B8D10E00F5F1F4F0F731127E02E8C8D1B
:10307000E8120BC00FB607FCFACFE889F989808106
:1030800085FFF5CFCE01B8DFF2CF8B8DFE01E80FC3
:10309000F11DE35AFF4FF0820B8FEA89FB89808193
:1030A000806207C0EE89FF896083E889F9898081A1
:1030B0008064808381E090E0DF91CF911F910F9138
:1030C000FF90EF900895CF93DF93EC01888D8823D4
:1030D000C1F0EA89FB89808185FD05C0A889B9898D
:1030E0008C9186FD0EC00FB607FCF5CF808185FF61
:1030F000F2CFA889B9898C9185FFEDCFCE017CDF15
:10310000E8CFDF91CF91089580E090E0892B19F00E
:103110006ADF811125C080E090E0892B41F080E0DA
:1031200090E0892B21F00E94000081111CC080E0FA
:1031300090E0892B41F080E090E0892B21F00E9403
:103140000000811113C080E090E0892BA1F080E0A5
:1031500090E0892B81F00E94000081110AC008953F
:103160000E940000D8CF0E940000E1CF0E94000022
:10317000EACF0C94000008953FB7F8948091530370
:1031800090915403A0915503B091560326B5A89B86
:1031900005C02F3F19F00196A11DB11D3FBFBA2FE9
:1031A000A92F982F8827820F911DA11DB11DBC0149
:1031B000CD0142E0660F771F881F991F4A95D1F70E
:1031C00008950E942F306F927F928F929F92AF92BC
:1031D000BF92CF92DF92EF92FF920F931F93CF9304
:1031E000DF93CDB7DEB7C154D1090FB6F894DEBF77
:1031F0000FBECDBF3C01F62EE42EB22ECE010196BD
:103200006C018C01242F49E050E0C30122963FAFAE
:1032100022970E94142A22963FAD229781111AC04C
:103220008B809C803F93BF92DF92CF921F9280E46D
:103230008F93A12CB12C82E0C82E06E020E840E05C
:103240006F2DC3010E946D250F900F900F900F906E
:103250000F900F90CF5BDF4F0FB6F894DEBF0FBE1D
:10326000CDBFDF91CF911F910F91FF90EF90DF9035
:10327000CF90BF90AF909F908F907F906F90089568
:103280008F929F92AF92BF92CF92EF920F931F9225
:103290001F923F932F935F934F934A01A12CB12C20
:1032A000CC24C394E12C06E020E840E00E946D2588
:1032B0000F900F900F900F900F900F900F91EF9035
:1032C000CF90BF90AF909F908F9008958F929F92D4
:1032D000AF92BF92CF92EF920F93A42EB12C1F9278
:1032E0001F921F921F921F921F92812C912CC12C12
:1032F000E62E01E023E240E0FC01628582819381B9
:103300000E946D250F900F900F900F900F900F90CF
:103310000F91EF90CF90BF90AF909F908F900895B6
:103320008F929F92AF92BF92CF92EF920F93A62E61
:10333000B12C1F921F925F934F931F9224E02F9303
:1033400024E0822E912CC12CE12C00E023EA40E005
:10335000FC016285828193810E946D250F900F9000
:103360000F900F900F900F900F91EF90CF90BF9014
:10337000AF909F908F9008958F929F92AF92BF923F
:10338000CF92EF920F93A42EB12C1F921F921F92F7
:103390001F921F921F92812C912CC12CE62E03E0CC
:1033A00023E240E0FC016285828193810E946D25C9
:1033B0000F900F900F900F900F900F900F91EF9034
:1033C000CF90BF90AF909F908F9008951F920F92D3
:1033D0000FB60F9211240BB60F922F933F934F937A
:1033E0005F936F937F938F939F93AF93BF93EF936D
:1033F000FF938AEE93E000DEFF91EF91BF91AF91D2
:103400009F918F917F916F915F914F913F912F91FC
:103410000F900BBE0F900FBE0F901F9018951F922C
:103420000F920FB60F9211240BB60F922F938F931A
:103430009F93EF93FF93E091FA03F091FB03808158
:10344000E0910004F091010482FD12C0908180910E
:1034500003048F5F8F7320910404821751F0E09171
:103460000304F0E0E651FC4F958F8093030401C004
:103470008081FF91EF919F918F912F910F900BBEC3
:103480000F900FBE0F901F901895362F90E0FC0103
:10349000E857FE4F4491FC01ED52FD4F2491FC0191
:1034A000E357FD4F9491992309F46BC0442309F429
:1034B00055C050E0FA013197E231F10508F04EC0F5
:1034C0008827EE58FF4F8F4F0C94E62E8091800096
:1034D0008F7707C0809180008F7D03C0809180002E
:1034E000877F809380003AC084B58F7702C084B50F
:1034F0008F7D84BD33C08091B0008F7703C08091F1
:10350000B0008F7D8093B00029C0809190008F77AC
:1035100007C0809190008F7D03C080919000877FCD
:10352000809390001BC08091A0008F7707C080918E
:10353000A0008F7D03C08091A000877F8093A000B2
:103540000DC0809120018F7707C0809120018F7D71
:1035500003C080912001877F80932001E92FF0E054
:10356000EE0FFF1FE75AFD4FA591B4918FB7F89466
:10357000EC91311103C020952E2301C02E2B2C93EA
:103580008FBF08958F929F92AF92BF92CF92DF929A
:10359000EF92FF926B017C01EFDD4B015C01C114E6
:1035A000D104E104F104E9F0E7DDDC01CB01881985
:1035B0009909AA09BB09883E9340A105B10578F392
:1035C00021E0C21AD108E108F10888EE880E83E0F4
:1035D000981EA11CB11CC114D104E104F10421F70F
:1035E000DECFFF90EF90DF90CF90BF90AF909F9095
:1035F0008F9008958F929F92AF92BF92CF92EF9249
:103600000F93CF931F921F921F921F921F921F9290
:10361000812C912CA12CB12CC12CE42E05E020E0B2
:1036200040E00E946D25C82F6CE271E080E090E0E0
:10363000A9DF0F900F900F900F900F900F908C2F8D
:10364000CF910F91EF90CF90BF90AF909F908F90C0
:1036500008952FB7F89460914F03709150038091B3
:103660005103909152032FBF08958F929F92AF9272
:10367000BF92CF92EF920F93CF93DF93FC01E1596A
:10368000FF4F208131812E7F31832083EC01CC5B81
:10369000DF4FDC01AD5BBF4FBE971F921F927F9340
:1036A0006F935F934F934A01A12CB12CC12CE12C55
:1036B00000E020E248816C91808191810E946D251B
:1036C0000F900F900F900F900F900F90DF91CF9170
:1036D0000F91EF90CF90BF90AF909F908F900895F3
:1036E000FC01DC01A159BF4F8D919C9111978D7FF9
:1036F0009E7F8D939C93BF016E587F4F85E0DB01C9
:103700008C93119684E08C9311968DE08C93119696
:1037100084898C93119685898C93119686898C93D4
:10372000119687898C931196808D8C931196818D3B
:103730008C93119688E18C9311968CEC8C93119656
:1037400081E08C9311961C9211961C9211961C92FA
:1037500011961C9240E150E0CF0187CF2F923F920B
:103760005F926F927F928F929F92AF92BF92CF9211
:10377000DF92EF92FF920F931F93CF93DF93CDB71A
:10378000DEB728970FB6F894DEBF0FBECDBFFC01A1
:10379000ED59FF4F2081222309F4FBC56C0159DF4D
:1037A00086010E5A1F4FD8018D909D90AD90BC9010
:1037B000DC01CB0188199909AA09BB09B7FDE9C544
:1037C00048DF1601B2E62B0E311CF101E080DC016E
:1037D000CB018E0D911DA11DB11DF8018083918338
:1037E000A283B38380E490E09A8389835601F2E751
:1037F000AF0EB11C96012D5B3F4F3E832D83C6015A
:103800008F5B9F4F98878F8385019E012F5F3F4F6E
:10381000F601E95BFF4F4081AD81BE816C91FC01F7
:10382000808191810E9436258B7F09F013C2D501DA
:10383000EC918E2F90E0FC013197E731F10508F013
:1038400009C28827EC57FF4F8F4F0C94E62EF601E4
:10385000E958FF4F80818111FDC1860101591F4F39
:10386000F801808191819C01216031832083D60100
:10387000AB58BF4F2C91213061F411962C9120311F
:1038800009F0E8C112962C91D601D8962C93816448
:1038900031C1293009F0DEC1D601AA58BF4F2C91A1
:1038A000203109F0D7C11296960122583F4F6D91F1
:1038B000AD014D565109FA016083A217B307B9F75C
:1038C0008162D8018D939C93C5C1F601EF58FF4FDB
:1038D00080818530E8F0D601DB968C919601205CE2
:1038E0003F4F811104C0D9018C91882389F0108247
:1038F000D601D9961C92D997DB961C92DB97DE965F
:103900001C92D9011C928AE0D601A659BF4F8C9314
:1039100080818F5F9EC1F601EC58FF4F008100232C
:1039200009F498C1F02EFF0CFF0CFF0C10E04601CB
:10393000B7E68B0E911CD601A859BF4F96012759A7
:103940003F4FA601405C5F4FC6018F0D911DBC012A
:103950006A587F4FFB01E080F401E0826F5F7F4F88
:10396000FB0160816C9388589F4FFC018081F901B5
:103970008083F60193AD992301F181111EC0862F3A
:103980008570D9F08E2D8C70C1F081E0EB59FF4F1E
:103990008083F6E01F9FC0011124F6017496960102
:1039A000265E3F4F8F599F4FDF01A80FB91F4C91E3
:1039B0004193E217F307C1F71DC0FA018081882304
:1039C00001F1862F8570E9F08E2D887CD1F0F6E02C
:1039D0001F9FC0011124F60174969601265E3F4F89
:1039E0008F599F4FDF01A80FB91F4C914193E217E8
:1039F000F307C1F7F601E159FF4F8081918180689B
:103A000079C01F5F83E0F80E10139ECF23C1F6012B
:103A1000E159FF4F20813181C901916091838083F9
:103A2000D601AC58BF4F8C91811113C012968C9166
:103A30008F7090E0982F882711974C91842BD60196
:103A400053969C938E9352972260316031832083EA
:103A500001C186E0FBC0F601EC58FF4F8081811167
:103A6000F9C03597808191818D7F846043C0F601D4
:103A7000EC58FF4F80818111EDC037969601275693
:103A80003F4F8191DF01A256B1098C93882319F031
:103A9000E217F307B1F7F601E159FF4F80819181F9
:103AA000886028C0F601EC58FF4FC60186589F4F2A
:103AB0002191DF01A156B1092C93E817F907C1F74D
:103AC0008081F601E959FF4F808374969081739746
:103AD00090837496208173972083957029F0887C59
:103AE00019F081E0F60187AFF601E159FF4F8081BF
:103AF0009181806191838083ADC0D601DB968C91EA
:103B0000882321F0C6010E941E11A4C0F6018285FF
:103B10009385892BB9F78EE0D5018C9384E0ED581D
:103B2000FF4F808386E031968083F6018489EB58CD
:103B3000FF4F8083D60155968C915597319680839F
:103B4000F6018689E958FF4F808357968C915797E5
:103B500031968083F601808DE758FF4F8083599618
:103B60008C91319628C08CE0F501808384E0F601C9
:103B7000ED58FF4F808386E031968083D6015496BE
:103B80008C91549731968083F6018589EA58FF4FCE
:103B9000808356968C91569731968083F60187895B
:103BA000E858FF4F808358968C9131968083F601B8
:103BB000818DE658FF4F808349E050E0B501C60192
:103BC00054DD48C0D601AC58BF4F8C9181111CC048
:103BD000D601DB968C91DB97882349F0D9968C919E
:103BE000D997811104C081E0D9968C9333C0F60136
:103BF000E05CFF4F8081882369F1F60186AD811179
:103C000029C081E086AF26C0F60192898389E159F7
:103C1000FF4F208131812B7F3183208326E0F50106
:103C2000208324E0F601ED58FF4F208323E02C93FE
:103C30003296908331968F70808383E131968083B2
:103C400046E050E0B501C60110DD80E1F601E6591D
:103C5000FF4F8083860106591F4FD8018C9190E059
:103C60008131910508F04DC3FC018827E556FF4FCF
:103C70008F4F0C94E62E7601BBE6EB0EF11CF7019C
:103C80008081918101969183808332962081318158
:103C90002817390708F035C332961182108283E065
:103CA000D5018C938CE0349680833196108243E06A
:103CB00050E0B501C601D9DC81E0F8018083D7016D
:103CC0001D921C921EC3F601E559FF4F8081918120
:103CD000019691838083D601A159BF4F2C9120FF7B
:103CE0001BC01182108282E0F801808384E2D5013A
:103CF0008C938CE0F601ED58FF4F808383E0319682
:103D0000808384E03196808388E031968083319689
:103D1000108246E050E036C0D601A359BF4F2D9126
:103D20003C9111972817390708F0EBC24AE0429FEF
:103D3000C001439F900D1124813D27E0920710F0B0
:103D400080ED97E08D939C93D8011C921182108294
:103D5000D8C2F601E159FF4F8081918180FFD1C225
:103D600023E0D8012C938F7D9183808389E0F50136
:103D7000808380E1F601ED58FF4F808331961082F9
:103D800043E050E0B501C60170DCBBC2F601E15969
:103D9000FF4F8081918185FFB4C28F7B91838083A7
:103DA00081E0D5018C9380E1349680833196108236
:103DB00043E050E0B501C60158DC84E0A0C2F60142
:103DC000E159FF4F808186FF9CC2D6011896ED9184
:103DD000FC911997309709F446C083E1D5018C9383
:103DE0008CE0D601AD58BF4F8C93DF010D900020C1
:103DF000E9F7C6018C589F4F2A2F2E1BDC012C930C
:103E000040E0242F30E0DF010D900020E9F711970A
:103E1000AE1BBF0BC601820F931F2A173B0758F436
:103E2000BC016B587F4F2E0F3F1FD9018C91DB01D6
:103E30008C934F5FE6CFDC01AB58BF4F1C92DF0184
:103E40000D900020E9F7AD014E1B5F0B4D5F5F4FFA
:103E5000B501C6010ADC85E052C2F601E159FF4F07
:103E6000808180FF4EC286E020C2F601E05CFF4FF9
:103E70008081811105C0F60183AD882309F414C245
:103E8000F601E159FF4F808191818F779183808383
:103E900081E0D5018C9384E03496808385E031966F
:103EA000808383E3319680838BE8319680838EE92B
:103EB0003196808380E3319680838AE031968083D7
:103EC00048E050E0B501C601D0DB87E018C27601BA
:103ED000BFE6EB0EF11CF701808187FF12C282E082
:103EE000D5018C933601B3E76B0E711C84E0582E1C
:103EF000F30150824601F4E78F0E911CD4011C920D
:103F000043E050E0B501C601B0DBF601EB59FF4FCD
:103F10008081882309F466C0F70180819181877FC1
:103F20009183808389E1D5018C93F30150828AE0EB
:103F3000D4018C93F6018489EB58FF4F8083D6011E
:103F400055968C91559731968083F6018689E9586C
:103F5000FF4F808357968C91579731968083F60157
:103F6000808DE758FF4F808359968C9131968083DE
:103F700081E031968083319610823196108231969D
:103F800010824DE050E0B501C6016FDB8CE0B7C197
:103F9000960121593F4F3C832B83D9016D907C9032
:103FA00063FEAFC17601BAE1EB0EF11C48E050E0D0
:103FB00064EE72E0C7010E943A30892B09F4C2C056
:103FC000F601E759FF4F8081882309F4EFC0F6011D
:103FD00083AD882309F404C1EB59FF4F8081882306
:103FE00009F4FEC088E061C1F601E159FF4F80810C
:103FF00080FF87C13A971082C60172DB89E07FC1DA
:10400000F601E159FF4F8081918190FF7AC181FFD4
:1040100018C081E1D5018C9384E03496808382E0DE
:1040200031968083F60192898389EB58FF4F908304
:1040300031968F70808345E050E0B501C60115DBF5
:1040400033C1C6014DDB5DC1F60181AD811159C19E
:1040500083AD811156C186AD811153C1E05CFF4F24
:10406000808181114EC1BF96808191818F7E918325
:1040700080838AE1D5018C938CE03496808381E043
:1040800031968083F60180859185EB58FF4F892B0F
:1040900011F083E001C082E0808344E050E0B5018C
:1040A000C601E3DA81E0D60114968C938BE027C138
:1040B000F601E159FF4F8081918184FF3FC0D60115
:1040C00014961C921497877F9183808389E1F50170
:1040D000808384E0F601ED58FF4F80838AE03196BB
:1040E000808354968C91549731968083F60185890C
:1040F000EA58FF4F808356968C915697319680836D
:10410000F6018789E858FF4F808358968C91319645
:104110008083F601818DE658FF4F808381E03196E0
:1041200080833196108231961082319610824DE054
:1041300050E0B501C60199DA8CE0B7C082FFE1C05A
:1041400080E1DDC055245394F60152AE14AE15AE95
:104150004601F4E68F0E911CD4011C9246E150E01A
:104160006DEE72E0C7010E943A30892B19F4F60116
:1041700054AE26CF46E150E064E073E0C7010E94F0
:104180003A30892B31F4D4015C92F60154AE55AE2D
:1041900017CF43E150E06BE173E0C7010E943A3072
:1041A000892B09F00DCFD4015C920ACF3197808121
:1041B000853209F00CCF31978081883009F007CF24
:1041C00043E150E06FE273E0C7010E943A30892B6F
:1041D00009F0FDCE81E0F601EA59FF4F8083F7CE6A
:1041E000E89461F8AB81BC816D927C9289E0F50125
:1041F000808384E0F601ED58FF4F808387E031969D
:104200008083D60154968C91549731968083F60121
:104210008589EA58FF4F808356968C915697319640
:104220008083F6018789E858FF4F808358968C91E8
:1042300031968083F601818DE658FF4F8083319659
:1042400010824AE050E0B501C6010FDA8DE02DC0C2
:10425000F601E159FF4F808181FF53C0D601AA5971
:10426000BF4F8C91882321F081E0D601DE968C939C
:10427000D60115961C92159716961C9216971796AE
:104280001C92118210828FE03AC0F601E559FF4F6F
:10429000808191810196893E23E0920718F49183F1
:1042A00080832FC0118210828AE0D8018C9329C0AC
:1042B000F601E159FF4F808182FF23C011821082F5
:1042C00080E4F501282F11922A95E9F7F601EE54C2
:1042D000FF4FDF011D928A95E9F7F60113AE12AE8A
:1042E00011AEEB59FF4F1082B5971082D601DF96C1
:1042F0001C92DF97DE961C92B69610828AE0F80137
:10430000808380E490E09A8389835601F2EBAF0EBC
:10431000B11CF601E65BFF4FD101EC9085019E01D7
:104320002F5F3F4F4081ED81FE816081AF81B88575
:104330008D919C919BD30C551109F601E25AFF4FC8
:104340006F01811116C089819A81892B91F07801C2
:10435000D7018D919D917D01009741F0DC01ED9198
:10436000FC910190F081E02DB5011995EC14FD044C
:1043700079F7F801819191918F01009739F0DC0173
:10438000ED91FC910280F381E02D19950C151D052E
:1043900081F780E028960FB6F894DEBF0FBECDBF40
:1043A000DF91CF911F910F91FF90EF90DF90CF9011
:1043B000BF90AF909F908F907F906F905F903F9055
:1043C0002F900895EF92FF920F931F93CF93DF9357
:1043D000EC01AC014B5B5F4F80E090E0FA0131975C
:1043E0001082009711F428E001C020E0DA012C933C
:1043F000FC01EE0FFF1FDF01A80FB91FAC0FBD1F9F
:10440000AA5BBF4F2C912E7F2D7F2C93009711F428
:104410002FE001C021E0E80FF91FEC0FFD1FEA5B60
:10442000FF4F220F220F30813370232B2083019600
:104430004D5F5F4F8430910589F68E010A5A1F4FF8
:104440007E01BEE5EB0EF11CF801819191918F0187
:10445000009739F0DC01ED91FC910480F581E02DAD
:1044600019950E151F0581F719AE1AAE1EAE1FAEB7
:10447000FE01EA59FF4F1082B39710823E9681E009
:10448000808331961082118212821382709610827C
:10449000CD59DF4F1882DF91CF911F910F91FF907F
:1044A000EF900895CF93DF93EC018CDFFE01EF5B7B
:1044B000FF4F80819181DC01ED91FC91CD5BDF4F5D
:1044C0000480F581E02D6881199580E0DF91CF911E
:1044D00008958F929F92AF92BF92CF92DF92EF9208
:1044E000FF920F931F93CF93DF93862E942E590143
:1044F000B0D86B017C0128E8C20E23E1D21EE11C7A
:10450000F11C00E010E0D0E0C0E09828A2D8DC0167
:10451000CB018C199D09AE09BF09B7FF2CC0692DCD
:1045200080EF0E94740995D8DC01CB018C199D099C
:10453000AE09BF09B7FF09C088EC0E94970987FF41
:10454000F2CF60E888EC0E94740988EF0E94970916
:10455000C82FCF70C43019F0CE3051F00CC00F5FAF
:104560001F4FA114B10491F20A151B0579F603C07F
:10457000DF5FD33059F68C2FDF91CF911F910F91D0
:10458000FF90EF90DF90CF90BF90AF909F908F9073
:1045900008952F923F924F925F926F927F928F92E7
:1045A0009F92AF92BF92CF92DF92EF92FF920F93C2
:1045B0001F93CF93DF93CDB7DEB729970FB6F8944B
:1045C000DEBF0FBECDBF1C01798768875B834A833E
:1045D0006901D9018D909C901197FB01F181F983BC
:1045E0001D921C92DB0112968C9181FD02C060E14C
:1045F00001C060E288EE0E9474098E2D90E0A0E078
:10460000B0E08C839D83AE83BF83482C2A813B819D
:10461000A885B9854C9160E0C1015BDFF82EB6E05A
:104620008B1316C088EF0E9497098295817091E0E4
:104630008927E885F985928180FB91F9928391FD24
:1046400002C060E101C060E288EE0E947409DECF22
:10465000811166C088EC0E94970982FF5FC080E3E9
:104660000E949709582E90E08816990608F4542C59
:10467000D6018D919C91652C712CF401E81BF90BEE
:10468000CF01F7FF02C080E090E053018615970547
:104690000CF45C0180E591E00E9454170E944817D9
:1046A00088E00E944D17A50160E070E0C8010E94FB
:1046B0003330A114B10421F0B501C8010E942A17BA
:1046C0000A0D1B1D0E944A170E944C1764E088ECDB
:1046D0000E947409D6018D919C911197680E791EE4
:1046E0006D927C92B9815B1618F06814790460F0C1
:1046F00088EF0E94970982958170E885F9859281FB
:1047000080FB91F992830CC0EE2009F47FCF6C817D
:104710007D818E819F810E94C21A78CF80EFF82E12
:104720008F2D29960FB6F894DEBF0FBECDBFDF9157
:10473000CF911F910F91FF90EF90DF90CF90BF909E
:10474000AF909F908F907F906F905F904F903F9031
:104750002F9008959F92AF92BF92CF92DF92EF92E7
:10476000FF920F931F93CF93DF937C01C42F122FDF
:10477000992493946C01C60ED11CC60ED11C86E5FB
:10478000C80ED11CA42EB12CABE2AA0EB11CAA0CEF
:10479000BB1CAE0CBF1CF60180819181DC01ED9148
:1047A000FC910280F381E02D202F412F6C2F199571
:1047B000803EC9F4C1110BC061E088EE0E9474090B
:1047C00066E670E080E090E00E94C21A16C0F50133
:1047D00080819181DC01ED91FC910284F385E02DD3
:1047E000612F19950AC08D3031F49FEF990D9330E8
:1047F00008F040C016C081113DC0F6018081918152
:10480000DC01ED91FC910190F081E02D202F412FF2
:104810006C2F1995D82F8D3061F48FEF890D83306F
:1048200050F464E670E080E090E00E94C21A939435
:10483000B2CF8823F1F0C1110BC061E088EE0E9475
:10484000740966E670E080E090E00E94C21A11C030
:10485000EC2FF0E0BB96EE0FFF1FEE0DFF1D8081E9
:104860009181DC01ED91FC910284F385E02D612FB3
:1048700019958D2FDF91CF911F910F91FF90EF90A0
:10488000DF90CF90BF90AF909F9008952F923F926E
:104890004F925F926F927F928F929F92AF92BF9250
:1048A000CF92DF92EF92FF920F931F93CF93DF93FC
:1048B00000D01F921F92CDB7DEB77D836C835A0163
:1048C0006901FB0121808FEF820D803408F075C0F3
:1048D0000E94291B2B013C01F8E84F0EF3E15F1EFB
:1048E000611C711CEC81FD81828180FD02C060E44D
:1048F00001C060E888EE0E94740920E0312CC114E8
:10490000D10409F44AC076012C143D0408F4710165
:10491000EA82A8016E2D80E10E944F096E2D88E386
:104920000E947409EC81FD816081606280EF0E94C9
:10493000740988EC0E94970987FFFBCF60E888EC38
:104940000E94740988EF0E949709282F2F70812CEC
:10495000912C1982222361F02B830E94291BDC01F8
:10496000CB0184199509A609B7092B81B7FD05C0AC
:10497000CE18DF080E0D1F1DC2CF263001F12E30DC
:1049800009F456C0243049F4FFEF8F1A9F0AA1148E
:10499000B10459F18A149B0441F588EF2B830E94DE
:1049A000970985FB882780F9EC81FD81928180FB46
:1049B00090F992832B81822F41C08AED3FC088EF0E
:1049C0000E94970985FB882780F991E08927EC816F
:1049D000FD81928180FB90F9928390FD02C060E49A
:1049E00001C060E888EE0E94740960E088E30E94DC
:1049F0007409F801608180E10E9474096A8188E38A
:104A00000E947409EC81FD816081606280EF0E94E8
:104A1000740988EC0E94970987FFFBCF60E888EC57
:104A20000E94740988EF0E949709282F2F7092CF57
:104A300089818F5F89838330C1F6AFCF0F900F904C
:104A40000F900F900F90DF91CF911F910F91FF90DA
:104A5000EF90DF90CF90BF90AF909F908F907F901E
:104A60006F905F904F903F902F9008958F929F92FC
:104A7000AF92BF92CF92DF92EF920F931F93CF939B
:104A8000DF9300D01F92CDB7DEB76C01590148010A
:104A90001C821B821A8219828E010F5F1F4F9E019A
:104AA0002D5F3F4F8ED2811108C049815A816B81A1
:104AB0007C8184019501C6016CDD0F900F900F90F1
:104AC0000F90DF91CF911F910F91EF90DF90CF90DA
:104AD000BF90AF909F908F9008952F923F924F92EA
:104AE0005F926F927F928F929F92AF92BF92CF927E
:104AF000DF92EF92FF920F931F93CF93DF93CDB787
:104B0000DEB762970FB6F894DEBF0FBECDBF3C0193
:104B1000F42E322E202E5C2D48A459A4CAA4DBA466
:104B20001E861D861C861B868E01055F1F4F9E01FB
:104B3000235F3F4F598B45D25989811199C03982E2
:104B40002A82EB825C83BE82AD8298868F82AE0120
:104B50004F5F5F4F68E080E20E944F092B853C85E4
:104B60004F2D60E1C301B5DC182F81117DC0232CCE
:104B7000221C2224221CC114D10409F469C0ED8531
:104B8000FE858281222009F455C08260828354010F
:104B900033243394A114B10409F449C05A864986D8
:104BA0004B855C856D857E85E12C86019E01275FA6
:104BB0003F4FC301EEDC182F8630B1F42D853E85C2
:104BC00088EF298B3A8B0E94970985FB882780F90B
:104BD000832529893A89D90112969C91129780FBE5
:104BE00091F912969C93D6CF81113EC0ECA5FDA5FC
:104BF0003097A1F00190F081E02D0190F081E02D3F
:104C0000C4018A199B09988B8F8769857A859E01D3
:104C1000215F3F4FA6018CA59DA5199589859A8591
:104C2000A81AB90A8415950508F0B4CF11C011115E
:104C30001BC013C0816082834B855C858601920115
:104C4000BF01C30123DE811113C02B853C850EC03B
:104C50002B853C85211003C009C02B853C8560EA6B
:104C60004F2DC30136DC04C0812F02C060E8F8CFAD
:104C700062960FB6F894DEBF0FBECDBFDF91CF9125
:104C80001F910F91FF90EF90DF90CF90BF90AF906A
:104C90009F908F907F906F905F904F903F902F905C
:104CA00008958F929F92AF92BF92CF92EF920F93FF
:104CB0001F921F921F921F921F921F92812C912C64
:104CC000A12CB12CC12CE22E09E020E006DF0F90D0
:104CD0000F900F900F900F900F900F91EF90CF903B
:104CE000BF90AF909F908F9008950F931F93CF9395
:104CF000DF932115310571F0E901042F162F0E9471
:104D0000BA02FC01892B41F01283D183C083038353
:104D100080E003C088ED01C086EDDF91CF911F9147
:104D20000F910895AF92BF92CF92DF92EF92FF92D0
:104D30000F931F93CF93DF93EC015B01142F0E941D
:104D4000291BCFA0D8A4E9A4FAA4DC01CB018C19BB
:104D50009D09AE09BF0987399105A105B1058CF4FC
:104D60000E94291B26E9C20ED11CE11CF11CA701DF
:104D70009601261B370B480B590BCA01B9010E943B
:104D8000C21ADE01A053BF4FFE01E153FF4F6E81F7
:104D90007F81EC900081212FA5018C819D810E9453
:104DA000680C0E94291B6FA378A789A79AA7DF9197
:104DB000CF911F910F91FF90EF90DF90CF90BF9018
:104DC000AF900895DC011296ED91FC911397309706
:104DD00009F01994FC012685222361F0E056FF4F6B
:104DE0002FEF20833196108231961082BC016356DA
:104DF0007F4F85C1E3E0F2E0E491DC01AA58BF4FA8
:104E0000EF70EE0F2C91E22BEC93BC0165597F4FB4
:104E100042E388CFCF92DF92EF92FF920F931F93DE
:104E2000CF93DF9300D000D0CDB7DEB78C01DC018B
:104E300052968C91813109F442C0823121F0813047
:104E400009F0B0C089C00E94291BF801C3A0D4A0FA
:104E5000E5A0F6A0DC01CB018C199D09AE09BF09C4
:104E6000893E9340A105B1050CF49CC0F801BB96A6
:104E700080E4DF011D928A95E9F78FE7F80182AFA0
:104E800083AF84AF85AF83E5898384EF8A8382E42F
:104E90008B8383E08C831D821E8246E0BE016F5FA0
:104EA0007F4FC8013FDF81E1D80152968C930E9469
:104EB000291BF80163A374A385A396A373C00E9462
:104EC000291BD8019396CD90DD90ED90FC9096979C
:104ED000DC01CB018C199D09AE09BF09893E9340C5
:104EE000A105B1050CF45EC0D80150968C91509785
:104EF000803521F481E01D968C9314C08E3421F40A
:104F000081E0F80187870EC08D3461F40E94291B6F
:104F1000D80193966D937D938D939C93969781E0A2
:104F20001E968C93F801178A108E118E128E138E96
:104F3000148E158E168E178E10A211A212A2019039
:104F4000F081E02D0084F185E02DC801199581E004
:104F5000D80152968C9326C0F8018685882311F1DA
:104F60000E94291BD8019396CD90DD90ED90FC9086
:104F70009697DC01CB018C199D09AE09BF09813AD6
:104F80009F40A105B10574F0B80163567F4FC80179
:104F9000B6D00E94291BD80193966D937D938D9373
:104FA0009C93969726960FB6F894DEBF0FBECDBFA2
:104FB000DF91CF911F910F91FF90EF90DF90CF90F5
:104FC00008958F929F92BF92CF92DF92EF92FF92BD
:104FD0000F931F93CF93DF931F92CDB7DEB74C0192
:104FE000B62E690149830E94BA027C01498100976B
:104FF00009F44BC0DC01ED91FC911197309709F455
:1050000046C013969C9180E0891731F020812417C7
:1050100029F033968F5FF8CFE0E0F0E0D601ED9312
:10502000FC933097B1F122812695269530E020310E
:10503000310514F02FE030E081E090E0A0E0B0E036
:1050400004C0880F991FAA1FBB1F2A95D2F701978A
:10505000F801918380836B2D80EE0E94740988EDA6
:105060000E949709682FD70114968C91882339F0F4
:10507000F401EA58FF4F80818260682B01C0697F8C
:1050800088ED0E94740980E005C086ED03C087EDBD
:1050900001C08BED0F90DF91CF911F910F91FF9089
:1050A000EF90DF90CF90BF909F908F900895CF9317
:1050B000DF93CDB7DEB7E2970FB6F894DEBF0FBE31
:1050C000CDBF92E3E4E5F5E0DE01119601900D928B
:1050D0009A95E1F78C838FEF8D836E838F8342E304
:1050E000BE016F5F7F4F89EE94E01CDEE2960FB643
:1050F000F894DEBF0FBECDBFDF91CF910895AF9280
:10510000BF92CF92DF92EF92FF920F93CF93DF93F4
:10511000EC015B010E94291BCFA0D8A4E9A4FAA44A
:10512000DC01CB018C199D09AE09BF0987399105B6
:10513000A105B1058CF40E94291B26E9C20ED11CE1
:10514000E11CF11CA7019601261B370B480B590BDC
:10515000CA01B9010E94C21ADE01AC52BF4FFE0162
:10516000ED52FF4F6E817F81EC90008122E3A5011B
:105170008C819D810E94680C0E94291B6FA378A7D7
:1051800089A79AA7DF91CF910F91FF90EF90DF90C1
:10519000CF90BF90AF900895CF93DF93BC018AEE7C
:1051A00093E00E94530CEC016FE972E08AEE93E009
:1051B0000E94530C8C0F9D1FDF91CF910895EAEE52
:1051C000F3E0A089B18982E08C93A485B5851C9217
:1051D000A685B78580E18C93108EA489B58986E079
:1051E0008C93A289B3898C9180618C93A289B389B5
:1051F0008C9188608C93A289B3898C9180688C9300
:105200000288F389E02D80818F7D8083089590E06E
:10521000FC01ED52FD4F2491FC01E357FD4F8491B9
:10522000882399F090E0880F991FFC01ED58FD4FFD
:10523000A591B491FC01E75AFD4F859194918FB7E8
:10524000F894EC91E22BEC938FBF08950F931F938A
:10525000CF93DF931F92CDB7DEB78C01DC018C9129
:10526000803308F055C0862F6983D1DFF801808133
:10527000E82FF0E09F01220F331FE20FF31FE65AE1
:10528000FC4F69816F739081907C692B60839EE8ED
:10529000D80111969C93119794E612969C936CE01A
:1052A00076D5BCE08B9FB001112440E050E09A011C
:1052B000260F371FF901EE0FFF1F2E0F3F1FF901B9
:1052C000E65AFC4F908196FD16C04F5F5F4F4C3001
:1052D000510569F7813021F51092800082E08093BA
:1052E00081001092850010928400B19A80916F0025
:1052F000826080936F00D801EC91F0E0CF01880FBD
:10530000991FE80FF91FE65AFC4F80818064808363
:10531000F80180810F90DF91CF911F910F91089537
:10532000823061F410929000809391001092950069
:105330001092940088BB80937100DDCF833069F4B4
:105340001092A00082E08093A1001092A50010921C
:10535000A40089BB80937200CECF8111CCCF109274
:10536000200182E0809321011092250110922401F6
:105370008ABB80937300BFCF0F931F93880F991F31
:10538000880F991FFC01EC7FF370E35FFD4F0591DF
:105390001591259134918091080590910905A0916E
:1053A0000A05B0910B05B901A8014095509560958B
:1053B0007095482359236A237B2340930805509313
:1053C000090560930A0570930B0580239123A2239E
:1053D000B32321E0892B8A2B8B2B09F420E0822F29
:1053E0001F910F9108950F931F93CF93DF938C011B
:1053F000C0E0D0E0F801EC0FFD1F6491662371F06E
:10540000E091EA03F091EB030190F081E02D8AEE48
:1054100093E01995892B11F02196ECCFCE01DF9105
:10542000CF911F910F9108958F929F92AF92BF924B
:10543000CF92EF920F931F931F921F921F930F9380
:105440005F934F934A01A12CB12C32E0C32EE22E80
:1054500006E020E840E041DB0F900F900F900F90A6
:105460000F900F901F910F91EF90CF90BF90AF9042
:105470009F908F900895DA01FC01E05BFF4F6083FD
:1054800013962C9113972370233061F412962C916C
:10549000129727FF36C0379720812370246020831E
:1054A00021E00BC0223069F512962C911297221F31
:1054B0002227221F33E0321B232F30E0A901440FA3
:1054C000551F240F351F280F391FF901EC5BFF4FC3
:1054D00012964C9112974F704083319614962C91EE
:1054E0001497208316962C91FC01EE59FF4F3081C2
:1054F000321708F42083FC01EF5AFF4F80818F5F41
:1055000080830895789484B5826084BD84B5816079
:1055100084BD85B5826085BD85B5816085BD80917E
:105520006E00816080936E001092810080918100F6
:1055300082608093810080918100816080938100EE
:10554000809180008160809380008091B1008460B0
:105550008093B1008091B00081608093B000809111
:10556000910082608093910080919100816080938E
:105570009100809190008160809390008091A100C3
:1055800082608093A1008091A10081608093A1003E
:105590008091A00081608093A000809121018260B1
:1055A000809321018091210181608093210180916C
:1055B000200181608093200180917A008460809333
:1055C0007A0080917A00826080937A0080917A00DC
:1055D000816080937A0080917A00806880937A005D
:1055E0001092C1001092CB041092CC041092CD0402
:1055F0001092CE041092890410928A0410928B04A7
:1056000010928C040E94291B6B017C014B015C01F0
:1056100088EB880E8BE0981EA11CB11C0E94291BF0
:105620006C157D058E059F0528F086169706A80641
:10563000B906A0F78AEE93E09093CA048093C90458
:10564000BEDD0E94291B6093890470938A048093B5
:105650008B0490938C0460E972E08091C90490916E
:10566000CA040E94530C0E94291B6B017C014B0150
:105670005C01AAE08A0E911CA11CB11C0E94291B8E
:105680006C157D058E059F0528F086169706A806E1
:10569000B906A0F781E080939D0491DD209A0E94D5
:1056A0004A17CFB7F89480915803811121C0E2ECDA
:1056B000F2E08491E8E0F3E09491E82FF0E0EE0F5F
:1056C000FF1FED58FD4FA591B491EC91E92321F412
:1056D00061E085E30E94451A85E399DD8CB5806120
:1056E0008CBD8CB580648CBD84E391DD83E38FDD5C
:1056F000809158038F5F80935803CFBF209A0E94F8
:105700004A176E9868E188E80E94571760E288E7B8
:105710000E94571760E088E70E945717C1E0D0E069
:10572000209709F4B4C088E60E947417219680FF80
:10573000F7CF61EC88ED0E94571760E680ED0E947C
:10574000571764E088EE0E94571788EE0E9474177E
:1057500082FFFBCF88EF0E947417807C8034D9F0E1
:1057600048F4811124C061ED88ED0E945717109212
:1057700057031DC0803821F0803CC9F481E015C07A
:1057800088ED0E94741781FD0BC069EC88ED0E94C2
:10579000571782E00AC088ED0E94741781FDF5CF8B
:1057A0006BEC88ED0E94571783E08093570360E20B
:1057B00088EC0E94571761E080E80E9457178EEC32
:1057C00091E011DE82EA92E0E7DC11E000E48091F2
:1057D000F6048823C9F18091590381110FC01093F9
:1057E00059038BEB92E0D8DC00938D0566E875E0F9
:1057F00089EE94E084DC64E684E659DC8091CF0491
:105800009091D004DC01ED91FC910280F381E02DB8
:105810001995C091E504D091E604E090E704F0907A
:10582000E804CE15DF0551F089919991DC01ED91E5
:10583000FC910190F081E02D1995F3CF89EC92E075
:10584000ABDC0E948418C3CF87ED92E0A5DC809189
:10585000CF049091D004DC01ED91FC910190F08196
:10586000E02D1995C091E504D091E604E090E7049D
:10587000F090E804CE15DF0509F389919991DC01D8
:10588000ED91FC910280F381E02D1995F3CF8EEE1E
:1058900091E0A9DDFFCFEF92FF92A701211104C093
:1058A0000297FF90EF90E7CDFF90EF900895EF9271
:1058B000FF92A701211103C0FF90EF90DCCDFF9074
:1058C000EF900895EF92FF920F931F93CF93DF9382
:1058D0001092ED031092EC0388EE93E0A0E0B0E0AC
:1058E0008093EE039093EF03A093F003B093F10342
:1058F00086E192E09093EB038093EA0385EC90E0DD
:105900009093F7038093F60384EC90E09093F9036F
:105910008093F80380EC90E09093FB038093FA036C
:1059200081EC90E09093FD038093FC0382EC90E087
:105930009093FF038093FE0386EC90E09093010424
:105940008093000410920304109204041092050442
:105950001092060410928D0410928E0410928F04FF
:105960001092900410929104109292041092930459
:105970001092940410929504109296041092970439
:10598000109298041092990410929A0410929B0419
:1059900010929C04809104018460809304018091A2
:1059A00005018460809305018AE892E09093C10527
:1059B0008093C0051092C5051092C80581E08093C0
:1059C000C9051092CA0582EC95E09093C7058093B3
:1059D000C6051092C20588E08093C3058CE38093CE
:1059E000C40580E090E041E022EC35E0FC01E054A9
:1059F000FA4F1586468717863487238705968B349A
:105A00009105A1F71092360681E18093370684E76D
:105A100092E0909345078093440780EC95E0909343
:105A200047078093460710924E0710924F07109237
:105A3000500710925107109252071092530710927C
:105A400054071092480788E0809349079CE390939D
:105A50004A0791E090934B0780934C0784E0809332
:105A60004D07E6E1F6E080E090E021913191232BB3
:105A700051F4880F991FFC01EA5EF94F84E497E026
:105A80009183808304C001968031910571F784E58C
:105A900092E090934506809344068EE692E09093C0
:105AA00047068093460610927D0610927F0610925C
:105AB00082061092840680EC95E09093860680938F
:105AC00085061092870681E08093950610929606CF
:105AD0001092970610929806109299061092A606B8
